S015000054726166666963204C696768742E7372656338
S11300000C942A000C9447000C9447000C9447006D
S11300100C9447000C9447000C9447000C94470040
S11300200C9447000C9447000C94AE040C944700C5
S11300300C9447000C9447000C9447000C94470020
S11300400C9447000C9447000C9447000C94470010
S11300500C94470011241FBECFE5D8E0DEBFCDBF0E
S113006010E0A0E6B0E0E2E8F9E002C005900D92ED
S1130070A239B107D9F710E0A2E9B0E001C01D929E
S1130080A339B107E1F70E94EF030C94BF040C9469
S11300900000823451F1833420F4813409F07BC0B0
S11300A007C0833409F43EC0843409F074C057C0D7
S11300B0413069F42AB381E090E0AC0102C0440FFE
S11300C0551F6A95E2F7BA01622B6ABB08952AB3F9
S11300D081E090E0AC0102C0440F551F6A95E2F73D
S11300E0BA01609562236ABB0895413069F427B36D
S11300F081E090E0AC0102C0440F551F6A95E2F71D
S1130100BA01622B67BB089527B381E090E0AC018C
S113011002C0440F551F6A95E2F7BA016095622345
S113012067BB0895413069F424B381E090E0AC01E9
S113013002C0440F551F6A95E2F7BA01622B64BBF3
S1130140089524B381E090E0AC0102C0440F551F30
S11301506A95E2F7BA016095622364BB0895413061
S113016069F421B381E090E0AC0102C0440F551F53
S11301706A95E2F7BA01622B61BB089521B381E06D
S113018090E0AC0102C0440F551F6A95E2F7BA0132
S11301906095622361BB0895823451F1833420F465
S11301A0813409F07BC007C0833409F43EC0843431
S11301B009F074C057C0413069F42BB381E090E07A
S11301C0AC0102C0440F551F6A95E2F7BA01622BD5
S11301D06BBB08952BB381E090E0AC0102C0440FE7
S11301E0551F6A95E2F7BA01609562236BBB0895C7
S11301F0413069F428B381E090E0AC0102C0440FBF
S1130200551F6A95E2F7BA01622B68BB089528B3BB
S113021081E090E0AC0102C0440F551F6A95E2F7FB
S1130220BA016095622368BB0895413069F425B32F
S113023081E090E0AC0102C0440F551F6A95E2F7DB
S1130240BA01622B65BB089525B381E090E0AC014F
S113025002C0440F551F6A95E2F7BA016095622304
S113026065BB0895413069F422B381E090E0AC01AC
S113027002C0440F551F6A95E2F7BA01622B62BBB4
S1130280089522B381E090E0AC0102C0440F551FF1
S11302906A95E2F7BA016095622362BB08958234DD
S11302A0F1F0833420F4813409F04FC006C0833464
S11302B041F1843409F049C036C029B381E090E0AB
S11302C0062E02C0880F991F0A94E2F730E08223B9
S11302D0932302C0959587956A95E2F7089526B30E
S11302E081E090E0062E02C0880F991F0A94E2F77D
S11302F030E08223932302C0959587956A95E2F7AF
S1130300089523B381E090E0062E02C0880F991F60
S11303100A94E2F730E08223932302C095958795EF
S11303206A95E2F7089520B381E090E0062E02C0BA
S1130330880F991F0A94E2F730E08223932302C0C6
S1130340959587956A95E2F7089580E0089582343B
S1130350B9F0833418F48134C9F505C08334E9F065
S11303608434A1F527C02BB381E090E0AC0102C036
S1130370440F551F6A95E2F7BA0162276BBB0895D3
S113038028B381E090E0AC0102C0440F551F6A9588
S1130390E2F7BA01622768BB089525B381E090E0D3
S11303A0AC0102C0440F551F6A95E2F7BA016227F7
S11303B065BB089522B381E090E0AC0102C0440F14
S11303C0551F6A95E2F7BA01622762BB0895823429
S11303D061F0833418F4813469F405C0833439F04E
S11303E0843441F406C06ABB089567BB089564BBB6
S11303F0089561BB0895823461F0833418F4813424
S113040069F405C0833439F0843441F406C06BBB0D
S1130410089568BB089565BB089562BB089582344E
S113042061F0833418F4813471F405C0833439F0F5
S1130430843449F406C089B3089586B3089583B318
S1130440089580B3089580E00895823451F183348F
S113045020F4813409F07BC007C0833409F43EC022
S1130460843409F074C057C0413069F42BB381E07F
S113047090E0AC0102C0440F551F6A95E2F7BA013F
S1130480622B6BBB08952BB381E090E0AC0102C0FA
S1130490440F551F6A95E2F7BA01609562236BBB5E
S11304A00895413069F428B381E090E0AC0102C0C2
S11304B0440F551F6A95E2F7BA01622B68BB089591
S11304C028B381E090E0AC0102C0440F551F6A9547
S11304D0E2F7BA016095622368BB0895413069F47C
S11304E025B381E090E0AC0102C0440F551F6A952A
S11304F0E2F7BA01622B65BB089525B381E090E071
S1130500AC0102C0440F551F6A95E2F7BA01609529
S1130510622365BB0895413069F422B381E090E021
S1130520AC0102C0440F551F6A95E2F7BA01622B71
S113053062BB089522B381E090E0AC0102C0440F95
S1130540551F6A95E2F7BA016095622362BB08956C
S11305506F70823489F0833418F4813409F505C04E
S1130560833489F08434E1F415C08BB3807F8BBB72
S11305708BB3682B6BBB089588B3807F88BB88B32B
S1130580682B68BB089585B3807F85BB85B3682BD2
S113059065BB089582B3807F82BB82B3682B62BB44
S11305A008956295607F823489F0833418F481342D
S11305B009F505C0833489F08434E1F415C08BB3A4
S11305C08F708BBB8BB3682B6BBB089588B38F7014
S11305D088BB88B3682B68BB089585B38F7085BBCF
S11305E085B3682B65BB089582B38F7082BB82B3D9
S11305F0682B62BB089582E460E041E00E94CC0075
S11306008FE99FE00197F1F700C0000082E460E009
S113061040E00E94CC008FE99FE00197F1F700C011
S1130620000008950E94FB0182E462E040E00E9421
S1130630CC000E94FB028FEC97E00197F1F700C019
S113064000000895CF93C82F8FEF91EEA4E081505E
S11306509040A040E1F700C000008C2F6FEF0E9493
S1130660E70182E460E041E00E94490082E461E045
S113067041E00E94490082E462E041E00E944900B6
S113068082E461E040E00E94CC008C2F68E30E9489
S11306901203AFECB7E01197F1F700C000008C2F04
S11306A06EE00E9412038FEC97E00197F1F700C00F
S11306B000008C2F61E00E941203AFE1BEE41197A9
S11306C0F1F700C000008C2F66E00E9412038FEC4B
S11306D097E00197F1F700C00000CF9108950E94C0
S11306E0FB0182E462E041E00E94CC000E94FB0234
S11306F08FEC97E00197F1F700C0000008951F9375
S1130700CF93DF93182FEB016881662339F021968C
S1130710812F0E946F0369916623D1F7DF91CF91F6
S11307201F91089561E00E9412038FE19EE40197F6
S1130730F1F700C000000895262F2150223070F4F4
S1130740413170F4442371F0613019F4942F9158BD
S11307500AC0623041F4942F915405C090E803C05C
S113076090E801C090E8692F0E9412038FEC97E093
S11307700197F1F700C00000089541E00E9449008C
S1130780089541E00E94CC00089540E00E94CC000E
S113079008950E94A70108950E944F01089583B708
S11307A0886083BF80E58CBF83B7816083BF83B7D4
S11307B0846083BF789489B7826089BF0895BB9AA7
S11307C083B7886083BF80E48CBF83B7816083BFB5
S11307D083B7846083BF83B7806183BF089584E453
S11307E060E00E94BD0384E461E00E94BD0384E4F0
S11307F062E00E94BD0381E40E9422030E94CF03B1
S113080000E610E00F2EF1E7EF2EF0E0FF2EF02DC2
S11308100F2EF1E8CF2EF0E0DF2EF02D81E40E94C0
S1130820920381E4B8010E947F0384E460E00E94A3
S1130830C103C9E316C0809192008436E0F310929C
S1130840920081E461E04BE00E949C0381E460E259
S11308500E946F0381E46C2F0E946F03C150CF325A
S113086029F080919200843630F3E9CF8FEF94E33E
S1130870ACE081509040A040E1F700C0000084E467
S113088060E00E94C50384E461E00E94C10381E446
S11308900E94920381E4B7010E947F03C4E316C05F
S11308A0809192008436E0F31092920081E461E03A
S11308B04BE00E949C0381E460E20E946F0381E4A8
S11308C06C2F0E946F03C150CF3229F080919200A7
S11308D0843630F3E9CF8FEF94E3ACE0815090405D
S11308E0A040E1F700C0000084E461E00E94C50379
S11308F084E462E00E94C10381E40E94920381E4E3
S1130900B6010E947F03C6E316C08091920084362C
S1130910E0F31092920081E461E04BE00E949C03BA
S113092081E460E20E946F0381E46C2F0E946F03F4
S1130930C150CF3229F080919200843630F3E9CF50
S11309408FEF94E3ACE081509040A040E1F700C009
S1130950000084E462E00E94C50360CF1F920F92FE
S11309600FB60F9211248F93809192008F5F809322
S113097092008F910F900FBE0F901F901895F894CE
S1050980FFCFA3
S113098272656D61696E696E6720313020736563CB
S11309920072656D61696E696E67203520736563E7
S11309A20072656D61696E696E67203720736563D5
S10509B200003F
S9030000FC
